{
  "_format": "hh-sol-artifact-1",
  "contractName": "MyEpicNFT",
  "sourceName": "contracts/MyEpicNFT.sol",
  "abi": [
    {
      "inputs": [],
      "stateMutability": "nonpayable",
      "type": "constructor"
    },
    {
      "anonymous": false,
      "inputs": [
        {
          "indexed": true,
          "internalType": "address",
          "name": "owner",
          "type": "address"
        },
        {
          "indexed": true,
          "internalType": "address",
          "name": "approved",
          "type": "address"
        },
        {
          "indexed": true,
          "internalType": "uint256",
          "name": "tokenId",
          "type": "uint256"
        }
      ],
      "name": "Approval",
      "type": "event"
    },
    {
      "anonymous": false,
      "inputs": [
        {
          "indexed": true,
          "internalType": "address",
          "name": "owner",
          "type": "address"
        },
        {
          "indexed": true,
          "internalType": "address",
          "name": "operator",
          "type": "address"
        },
        {
          "indexed": false,
          "internalType": "bool",
          "name": "approved",
          "type": "bool"
        }
      ],
      "name": "ApprovalForAll",
      "type": "event"
    },
    {
      "anonymous": false,
      "inputs": [
        {
          "indexed": false,
          "internalType": "address",
          "name": "sender",
          "type": "address"
        },
        {
          "indexed": false,
          "internalType": "uint256",
          "name": "tokenId",
          "type": "uint256"
        }
      ],
      "name": "NewEpicNFTMinted",
      "type": "event"
    },
    {
      "anonymous": false,
      "inputs": [
        {
          "indexed": true,
          "internalType": "address",
          "name": "from",
          "type": "address"
        },
        {
          "indexed": true,
          "internalType": "address",
          "name": "to",
          "type": "address"
        },
        {
          "indexed": true,
          "internalType": "uint256",
          "name": "tokenId",
          "type": "uint256"
        }
      ],
      "name": "Transfer",
      "type": "event"
    },
    {
      "inputs": [
        {
          "internalType": "address",
          "name": "to",
          "type": "address"
        },
        {
          "internalType": "uint256",
          "name": "tokenId",
          "type": "uint256"
        }
      ],
      "name": "approve",
      "outputs": [],
      "stateMutability": "nonpayable",
      "type": "function"
    },
    {
      "inputs": [
        {
          "internalType": "address",
          "name": "owner",
          "type": "address"
        }
      ],
      "name": "balanceOf",
      "outputs": [
        {
          "internalType": "uint256",
          "name": "",
          "type": "uint256"
        }
      ],
      "stateMutability": "view",
      "type": "function"
    },
    {
      "inputs": [],
      "name": "countNft",
      "outputs": [
        {
          "internalType": "string",
          "name": "",
          "type": "string"
        }
      ],
      "stateMutability": "view",
      "type": "function"
    },
    {
      "inputs": [
        {
          "internalType": "uint256",
          "name": "tokenId",
          "type": "uint256"
        }
      ],
      "name": "getApproved",
      "outputs": [
        {
          "internalType": "address",
          "name": "",
          "type": "address"
        }
      ],
      "stateMutability": "view",
      "type": "function"
    },
    {
      "inputs": [
        {
          "internalType": "address",
          "name": "owner",
          "type": "address"
        },
        {
          "internalType": "address",
          "name": "operator",
          "type": "address"
        }
      ],
      "name": "isApprovedForAll",
      "outputs": [
        {
          "internalType": "bool",
          "name": "",
          "type": "bool"
        }
      ],
      "stateMutability": "view",
      "type": "function"
    },
    {
      "inputs": [],
      "name": "makeAnEpicNFT",
      "outputs": [],
      "stateMutability": "nonpayable",
      "type": "function"
    },
    {
      "inputs": [],
      "name": "name",
      "outputs": [
        {
          "internalType": "string",
          "name": "",
          "type": "string"
        }
      ],
      "stateMutability": "view",
      "type": "function"
    },
    {
      "inputs": [
        {
          "internalType": "uint256",
          "name": "tokenId",
          "type": "uint256"
        }
      ],
      "name": "ownerOf",
      "outputs": [
        {
          "internalType": "address",
          "name": "",
          "type": "address"
        }
      ],
      "stateMutability": "view",
      "type": "function"
    },
    {
      "inputs": [
        {
          "internalType": "uint256",
          "name": "tokenId",
          "type": "uint256"
        }
      ],
      "name": "pickRandomColor",
      "outputs": [
        {
          "internalType": "string",
          "name": "",
          "type": "string"
        }
      ],
      "stateMutability": "view",
      "type": "function"
    },
    {
      "inputs": [
        {
          "internalType": "uint256",
          "name": "tokenId",
          "type": "uint256"
        }
      ],
      "name": "pickRandomFirstWord",
      "outputs": [
        {
          "internalType": "string",
          "name": "",
          "type": "string"
        }
      ],
      "stateMutability": "view",
      "type": "function"
    },
    {
      "inputs": [
        {
          "internalType": "uint256",
          "name": "tokenId",
          "type": "uint256"
        }
      ],
      "name": "pickRandomSecondWord",
      "outputs": [
        {
          "internalType": "string",
          "name": "",
          "type": "string"
        }
      ],
      "stateMutability": "view",
      "type": "function"
    },
    {
      "inputs": [
        {
          "internalType": "uint256",
          "name": "tokenId",
          "type": "uint256"
        }
      ],
      "name": "pickRandomThirdWord",
      "outputs": [
        {
          "internalType": "string",
          "name": "",
          "type": "string"
        }
      ],
      "stateMutability": "view",
      "type": "function"
    },
    {
      "inputs": [
        {
          "internalType": "address",
          "name": "from",
          "type": "address"
        },
        {
          "internalType": "address",
          "name": "to",
          "type": "address"
        },
        {
          "internalType": "uint256",
          "name": "tokenId",
          "type": "uint256"
        }
      ],
      "name": "safeTransferFrom",
      "outputs": [],
      "stateMutability": "nonpayable",
      "type": "function"
    },
    {
      "inputs": [
        {
          "internalType": "address",
          "name": "from",
          "type": "address"
        },
        {
          "internalType": "address",
          "name": "to",
          "type": "address"
        },
        {
          "internalType": "uint256",
          "name": "tokenId",
          "type": "uint256"
        },
        {
          "internalType": "bytes",
          "name": "_data",
          "type": "bytes"
        }
      ],
      "name": "safeTransferFrom",
      "outputs": [],
      "stateMutability": "nonpayable",
      "type": "function"
    },
    {
      "inputs": [
        {
          "internalType": "address",
          "name": "operator",
          "type": "address"
        },
        {
          "internalType": "bool",
          "name": "approved",
          "type": "bool"
        }
      ],
      "name": "setApprovalForAll",
      "outputs": [],
      "stateMutability": "nonpayable",
      "type": "function"
    },
    {
      "inputs": [
        {
          "internalType": "bytes4",
          "name": "interfaceId",
          "type": "bytes4"
        }
      ],
      "name": "supportsInterface",
      "outputs": [
        {
          "internalType": "bool",
          "name": "",
          "type": "bool"
        }
      ],
      "stateMutability": "view",
      "type": "function"
    },
    {
      "inputs": [],
      "name": "symbol",
      "outputs": [
        {
          "internalType": "string",
          "name": "",
          "type": "string"
        }
      ],
      "stateMutability": "view",
      "type": "function"
    },
    {
      "inputs": [
        {
          "internalType": "uint256",
          "name": "tokenId",
          "type": "uint256"
        }
      ],
      "name": "tokenURI",
      "outputs": [
        {
          "internalType": "string",
          "name": "",
          "type": "string"
        }
      ],
      "stateMutability": "view",
      "type": "function"
    },
    {
      "inputs": [
        {
          "internalType": "address",
          "name": "from",
          "type": "address"
        },
        {
          "internalType": "address",
          "name": "to",
          "type": "address"
        },
        {
          "internalType": "uint256",
          "name": "tokenId",
          "type": "uint256"
        }
      ],
      "name": "transferFrom",
      "outputs": [],
      "stateMutability": "nonpayable",
      "type": "function"
    }
  ],
  "bytecode": "0x60a060405260405180610100016040528060d381526020016200511560d39139600890805190602001906200003692919062000e71565b50604051806080016040528060568152602001620051e860569139600990805190602001906200006892919062000e71565b50604051806101e001604052806040518060400160405280600581526020017f486170707900000000000000000000000000000000000000000000000000000081525081526020016040518060400160405280600381526020017f536164000000000000000000000000000000000000000000000000000000000081525081526020016040518060400160405280600781526020017f416e78696f75730000000000000000000000000000000000000000000000000081525081526020016040518060400160405280600581526020017f416e67657200000000000000000000000000000000000000000000000000000081525081526020016040518060400160405280600481526020017f466561720000000000000000000000000000000000000000000000000000000081525081526020016040518060400160405280600781526020017f446973677573740000000000000000000000000000000000000000000000000081525081526020016040518060400160405280600881526020017f537572707269736500000000000000000000000000000000000000000000000081525081526020016040518060400160405280600581526020017f536d696c6500000000000000000000000000000000000000000000000000000081525081526020016040518060400160405280600581526020017f52656c617800000000000000000000000000000000000000000000000000000081525081526020016040518060400160405280600681526020017f537472657373000000000000000000000000000000000000000000000000000081525081526020016040518060400160405280600681526020017f4c6f6e656c79000000000000000000000000000000000000000000000000000081525081526020016040518060400160405280600581526020017f517569657400000000000000000000000000000000000000000000000000000081525081526020016040518060400160405280600381526020017f536879000000000000000000000000000000000000000000000000000000000081525081526020016040518060400160405280600881526020017f4c6574686172677900000000000000000000000000000000000000000000000081525081526020016040518060400160405280600581526020017f5368616d65000000000000000000000000000000000000000000000000000000815250815250600a90600f620003fa92919062000f02565b50604051806101e001604052806040518060400160405280600581526020017f50697a7a6100000000000000000000000000000000000000000000000000000081525081526020016040518060400160405280600781526020017f436f6f6b6965730000000000000000000000000000000000000000000000000081525081526020016040518060400160405280600581526020017f43616b657300000000000000000000000000000000000000000000000000000081525081526020016040518060400160405280600781526020017f427572676572730000000000000000000000000000000000000000000000000081525081526020016040518060400160405280600981526020017f537061676865747469000000000000000000000000000000000000000000000081525081526020016040518060400160405280600581526020017f426f62756e00000000000000000000000000000000000000000000000000000081525081526020016040518060400160405280600581526020017f4265616e7300000000000000000000000000000000000000000000000000000081525081526020016040518060400160405280600581526020017f546f61737400000000000000000000000000000000000000000000000000000081525081526020016040518060400160405280600481526020017f4d6561740000000000000000000000000000000000000000000000000000000081525081526020016040518060400160405280600681526020017f506f7461746f000000000000000000000000000000000000000000000000000081525081526020016040518060400160405280600381526020017f456767000000000000000000000000000000000000000000000000000000000081525081526020016040518060400160405280600481526020017f467566750000000000000000000000000000000000000000000000000000000081525081526020016040518060400160405280600681526020017f4d616e696f63000000000000000000000000000000000000000000000000000081525081526020016040518060400160405280600581526020017f4170706c6500000000000000000000000000000000000000000000000000000081525081526020016040518060400160405280600681526020017f436f666665650000000000000000000000000000000000000000000000000000815250815250600b90600f6200078c92919062000f02565b50604051806101e001604052806040518060400160405280600581526020017f536e616b6500000000000000000000000000000000000000000000000000000081525081526020016040518060400160405280600381526020017f436174000000000000000000000000000000000000000000000000000000000081525081526020016040518060400160405280600381526020017f446f67000000000000000000000000000000000000000000000000000000000081525081526020016040518060400160405280600481526020017f4c696f6e0000000000000000000000000000000000000000000000000000000081525081526020016040518060400160405280600581526020017f546967657200000000000000000000000000000000000000000000000000000081525081526020016040518060400160405280600581526020017f4561676c6500000000000000000000000000000000000000000000000000000081525081526020016040518060400160405280600781526020017f436869636b656e0000000000000000000000000000000000000000000000000081525081526020016040518060400160405280600681526020017f506967656f6e000000000000000000000000000000000000000000000000000081525081526020016040518060400160405280600881526020017f456c657068616e7400000000000000000000000000000000000000000000000081525081526020016040518060400160405280600681526020017f436f77416e74000000000000000000000000000000000000000000000000000081525081526020016040518060400160405280600381526020017f466f78000000000000000000000000000000000000000000000000000000000081525081526020016040518060400160405280600881526020017f4b616e6761726f6f00000000000000000000000000000000000000000000000081525081526020016040518060400160405280600681526020017f4d6f6e6b6579000000000000000000000000000000000000000000000000000081525081526020016040518060400160405280600381526020017f506967000000000000000000000000000000000000000000000000000000000081525081526020016040518060400160405280600681526020017f5261626269740000000000000000000000000000000000000000000000000000815250815250600c90600f62000b1e92919062000f02565b506040518060c001604052806040518060400160405280600381526020017f726564000000000000000000000000000000000000000000000000000000000081525081526020016040518060400160405280600781526020017f233038433241380000000000000000000000000000000000000000000000000081525081526020016040518060400160405280600581526020017f626c61636b00000000000000000000000000000000000000000000000000000081525081526020016040518060400160405280600681526020017f79656c6c6f77000000000000000000000000000000000000000000000000000081525081526020016040518060400160405280600481526020017f626c75650000000000000000000000000000000000000000000000000000000081525081526020016040518060400160405280600581526020017f677265656e000000000000000000000000000000000000000000000000000000815250815250600d90600662000c9c92919062000f69565b5034801562000caa57600080fd5b506040518060400160405280600981526020017f5371756172654e465400000000000000000000000000000000000000000000008152506040518060400160405280600681526020017f5351554152450000000000000000000000000000000000000000000000000000815250816000908051906020019062000d2f92919062000e71565b50806001908051906020019062000d4892919062000e71565b505050600a6080818152505062000d9f6040518060400160405280601e81526020017f54686973206973206d79204e465420636f6e74726163742e20576f616821000081525062000da560201b620013ae1760201c565b6200118a565b62000e458160405160240162000dbc91906200109e565b6040516020818303038152906040527f41304fac000000000000000000000000000000000000000000000000000000007bffffffffffffffffffffffffffffffffffffffffffffffffffffffff19166020820180517bffffffffffffffffffffffffffffffffffffffffffffffffffffffff838183161783525050505062000e4860201b60201c565b50565b60008151905060006a636f6e736f6c652e6c6f679050602083016000808483855afa5050505050565b82805462000e7f9062001114565b90600052602060002090601f01602090048101928262000ea3576000855562000eef565b82601f1062000ebe57805160ff191683800117855562000eef565b8280016001018555821562000eef579182015b8281111562000eee57825182559160200191906001019062000ed1565b5b50905062000efe919062000fd0565b5090565b82805482825590600052602060002090810192821562000f56579160200282015b8281111562000f5557825182908051906020019062000f4492919062000e71565b509160200191906001019062000f23565b5b50905062000f65919062000fef565b5090565b82805482825590600052602060002090810192821562000fbd579160200282015b8281111562000fbc57825182908051906020019062000fab92919062000e71565b509160200191906001019062000f8a565b5b50905062000fcc919062000fef565b5090565b5b8082111562000feb57600081600090555060010162000fd1565b5090565b5b8082111562001013576000818162001009919062001017565b5060010162000ff0565b5090565b508054620010259062001114565b6000825580601f106200103957506200105a565b601f01602090049060005260206000209081019062001059919062000fd0565b5b50565b60006200106a82620010c2565b620010768185620010cd565b935062001088818560208601620010de565b620010938162001179565b840191505092915050565b60006020820190508181036000830152620010ba81846200105d565b905092915050565b600081519050919050565b600082825260208201905092915050565b60005b83811015620010fe578082015181840152602081019050620010e1565b838111156200110e576000848401525b50505050565b600060028204905060018216806200112d57607f821691505b602082108114156200114457620011436200114a565b5b50919050565b7f4e487b7100000000000000000000000000000000000000000000000000000000600052602260045260246000fd5b6000601f19601f8301169050919050565b608051613f61620011b4600039600081816109dc015281816110a701526112340152613f616000f3fe608060405234801561001057600080fd5b50600436106101215760003560e01c80636352211e116100ad578063b88d4fde11610071578063b88d4fde14610340578063c575757a1461035c578063c87b56dd1461038c578063de9d132f146103bc578063e985e9c5146103c657610121565b80636352211e1461027657806370a08231146102a657806395d89b41146102d6578063a22cb465146102f4578063b187301f1461031057610121565b806323b872dd116100f457806323b872dd146101c05780632de38d68146101dc57806342842e0e1461020c578063514dc8c6146102285780635cf944011461025857610121565b806301ffc9a71461012657806306fdde0314610156578063081812fc14610174578063095ea7b3146101a4575b600080fd5b610140600480360381019061013b919061287c565b6103f6565b60405161014d9190613088565b60405180910390f35b61015e6104d8565b60405161016b91906130a3565b60405180910390f35b61018e600480360381019061018991906128ce565b61056a565b60405161019b9190612ff8565b60405180910390f35b6101be60048036038101906101b99190612840565b6105ef565b005b6101da60048036038101906101d5919061273a565b610707565b005b6101f660048036038101906101f191906128ce565b610767565b60405161020391906130a3565b60405180910390f35b6102266004803603810190610221919061273a565b610885565b005b610242600480360381019061023d91906128ce565b6108a5565b60405161024f91906130a3565b60405180910390f35b6102606109c3565b60405161026d91906130a3565b60405180910390f35b610290600480360381019061028b91906128ce565b610a25565b60405161029d9190612ff8565b60405180910390f35b6102c060048036038101906102bb91906126d5565b610ad7565b6040516102cd9190613376565b60405180910390f35b6102de610b8f565b6040516102eb91906130a3565b60405180910390f35b61030e60048036038101906103099190612804565b610c21565b005b61032a600480360381019061032591906128ce565b610c37565b60405161033791906130a3565b60405180910390f35b61035a60048036038101906103559190612789565b610d55565b005b610376600480360381019061037191906128ce565b610db7565b60405161038391906130a3565b60405180910390f35b6103a660048036038101906103a191906128ce565b610ed5565b6040516103b391906130a3565b60405180910390f35b6103c4611027565b005b6103e060048036038101906103db91906126fe565b61131a565b6040516103ed9190613088565b60405180910390f35b60007f80ac58cd000000000000000000000000000000000000000000000000000000007bffffffffffffffffffffffffffffffffffffffffffffffffffffffff1916827bffffffffffffffffffffffffffffffffffffffffffffffffffffffff191614806104c157507f5b5e139f000000000000000000000000000000000000000000000000000000007bffffffffffffffffffffffffffffffffffffffffffffffffffffffff1916827bffffffffffffffffffffffffffffffffffffffffffffffffffffffff1916145b806104d157506104d082611447565b5b9050919050565b6060600080546104e79061360a565b80601f01602080910402602001604051908101604052809291908181526020018280546105139061360a565b80156105605780601f1061053557610100808354040283529160200191610560565b820191906000526020600020905b81548152906001019060200180831161054357829003601f168201915b5050505050905090565b6000610575826114b1565b6105b4576040517f08c379a00000000000000000000000000000000000000000000000000000000081526004016105ab906132d6565b60405180910390fd5b6004600083815260200190815260200160002060009054906101000a900473ffffffffffffffffffffffffffffffffffffffff169050919050565b60006105fa82610a25565b90508073ffffffffffffffffffffffffffffffffffffffff168373ffffffffffffffffffffffffffffffffffffffff16141561066b576040517f08c379a000000000000000000000000000000000000000000000000000000000815260040161066290613316565b60405180910390fd5b8073ffffffffffffffffffffffffffffffffffffffff1661068a61151d565b73ffffffffffffffffffffffffffffffffffffffff1614806106b957506106b8816106b361151d565b61131a565b5b6106f8576040517f08c379a00000000000000000000000000000000000000000000000000000000081526004016106ef90613216565b60405180910390fd5b6107028383611525565b505050565b61071861071261151d565b826115de565b610757576040517f08c379a000000000000000000000000000000000000000000000000000000000815260040161074e90613336565b60405180910390fd5b6107628383836116bc565b505050565b6060600061079b61077784611923565b6040516020016107879190612f92565b604051602081830303815290604052611ad0565b9050600a80549050816107ae91906136b6565b9050600a81815481106107ea577f4e487b7100000000000000000000000000000000000000000000000000000000600052603260045260246000fd5b9060005260206000200180546107ff9061360a565b80601f016020809104026020016040519081016040528092919081815260200182805461082b9061360a565b80156108785780601f1061084d57610100808354040283529160200191610878565b820191906000526020600020905b81548152906001019060200180831161085b57829003601f168201915b5050505050915050919050565b6108a083838360405180602001604052806000815250610d55565b505050565b606060006108d96108b584611923565b6040516020016108c59190612fd6565b604051602081830303815290604052611ad0565b9050600d80549050816108ec91906136b6565b9050600d8181548110610928577f4e487b7100000000000000000000000000000000000000000000000000000000600052603260045260246000fd5b90600052602060002001805461093d9061360a565b80601f01602080910402602001604051908101604052809291908181526020018280546109699061360a565b80156109b65780601f1061098b576101008083540402835291602001916109b6565b820191906000526020600020905b81548152906001019060200180831161099957829003601f168201915b5050505050915050919050565b60606109d76109d26007611b03565b611923565b610a007f0000000000000000000000000000000000000000000000000000000000000000611923565b604051602001610a11929190612f58565b604051602081830303815290604052905090565b6000806002600084815260200190815260200160002060009054906101000a900473ffffffffffffffffffffffffffffffffffffffff169050600073ffffffffffffffffffffffffffffffffffffffff168173ffffffffffffffffffffffffffffffffffffffff161415610ace576040517f08c379a0000000000000000000000000000000000000000000000000000000008152600401610ac590613256565b60405180910390fd5b80915050919050565b60008073ffffffffffffffffffffffffffffffffffffffff168273ffffffffffffffffffffffffffffffffffffffff161415610b48576040517f08c379a0000000000000000000000000000000000000000000000000000000008152600401610b3f90613236565b60405180910390fd5b600360008373ffffffffffffffffffffffffffffffffffffffff1673ffffffffffffffffffffffffffffffffffffffff168152602001908152602001600020549050919050565b606060018054610b9e9061360a565b80601f0160208091040260200160405190810160405280929190818152602001828054610bca9061360a565b8015610c175780601f10610bec57610100808354040283529160200191610c17565b820191906000526020600020905b815481529060010190602001808311610bfa57829003601f168201915b5050505050905090565b610c33610c2c61151d565b8383611b11565b5050565b60606000610c6b610c4784611923565b604051602001610c579190612ef1565b604051602081830303815290604052611ad0565b9050600b8054905081610c7e91906136b6565b9050600b8181548110610cba577f4e487b7100000000000000000000000000000000000000000000000000000000600052603260045260246000fd5b906000526020600020018054610ccf9061360a565b80601f0160208091040260200160405190810160405280929190818152602001828054610cfb9061360a565b8015610d485780601f10610d1d57610100808354040283529160200191610d48565b820191906000526020600020905b815481529060010190602001808311610d2b57829003601f168201915b5050505050915050919050565b610d66610d6061151d565b836115de565b610da5576040517f08c379a0000000000000000000000000000000000000000000000000000000008152600401610d9c90613336565b60405180910390fd5b610db184848484611c7e565b50505050565b60606000610deb610dc784611923565b604051602001610dd79190612ecf565b604051602081830303815290604052611ad0565b9050600c8054905081610dfe91906136b6565b9050600c8181548110610e3a577f4e487b7100000000000000000000000000000000000000000000000000000000600052603260045260246000fd5b906000526020600020018054610e4f9061360a565b80601f0160208091040260200160405190810160405280929190818152602001828054610e7b9061360a565b8015610ec85780601f10610e9d57610100808354040283529160200191610ec8565b820191906000526020600020905b815481529060010190602001808311610eab57829003601f168201915b5050505050915050919050565b6060610ee0826114b1565b610f1f576040517f08c379a0000000000000000000000000000000000000000000000000000000008152600401610f16906132b6565b60405180910390fd5b6000600660008481526020019081526020016000208054610f3f9061360a565b80601f0160208091040260200160405190810160405280929190818152602001828054610f6b9061360a565b8015610fb85780601f10610f8d57610100808354040283529160200191610fb8565b820191906000526020600020905b815481529060010190602001808311610f9b57829003601f168201915b505050505090506000610fc9611cda565b9050600081511415610fdf578192505050611022565b600082511115611014578082604051602001610ffc929190612e31565b60405160208183030381529060405292505050611022565b61101d84611cf1565b925050505b919050565b60006110336007611b03565b90506110cb6040518060400160405280600781526020017f6974656d20696400000000000000000000000000000000000000000000000000815250826040518060400160405280600881526020017f6d6178206d696e740000000000000000000000000000000000000000000000008152507f0000000000000000000000000000000000000000000000000000000000000000611d98565b60006110d682610767565b905060006110e383610c37565b905060006110f084610db7565b9050600083838360405160200161110993929190612e55565b60405160208183030381529060405290506000611125866108a5565b905060006008826009856040516020016111429493929190612e86565b604051602081830303815290604052905060006111878461116284611e3a565b604051602001611173929190612f13565b604051602081830303815290604052611e3a565b905060008160405160200161119c9190612fb4565b60405160208183030381529060405290506111eb6040518060400160405280601581526020017f0a2d2d2d2d2d2d2d2d2d2d2d2d2d2d2d2d2d2d2d2d00000000000000000000008152506113ae565b6111f4816113ae565b6112326040518060400160405280601581526020017f2d2d2d2d2d2d2d2d2d2d2d2d2d2d2d2d2d2d2d2d0a00000000000000000000008152506113ae565b7f0000000000000000000000000000000000000000000000000000000000000000891115611295576040517f08c379a000000000000000000000000000000000000000000000000000000000815260040161128c90613356565b60405180910390fd5b61129f338a611ff8565b6112a98982612016565b6112b3600761208a565b6112d6604051806060016040528060258152602001613ec7602591398a336120a0565b7febb98688741ffa4c7589bf325de30cf7becb63de567842e1ccdb6cb949fdc82c338a60405161130792919061305f565b60405180910390a1505050505050505050565b6000600560008473ffffffffffffffffffffffffffffffffffffffff1673ffffffffffffffffffffffffffffffffffffffff16815260200190815260200160002060008373ffffffffffffffffffffffffffffffffffffffff1673ffffffffffffffffffffffffffffffffffffffff16815260200190815260200160002060009054906101000a900460ff16905092915050565b611444816040516024016113c291906130a3565b6040516020818303038152906040527f41304fac000000000000000000000000000000000000000000000000000000007bffffffffffffffffffffffffffffffffffffffffffffffffffffffff19166020820180517bffffffffffffffffffffffffffffffffffffffffffffffffffffffff838183161783525050505061213f565b50565b60007f01ffc9a7000000000000000000000000000000000000000000000000000000007bffffffffffffffffffffffffffffffffffffffffffffffffffffffff1916827bffffffffffffffffffffffffffffffffffffffffffffffffffffffff1916149050919050565b60008073ffffffffffffffffffffffffffffffffffffffff166002600084815260200190815260200160002060009054906101000a900473ffffffffffffffffffffffffffffffffffffffff1673ffffffffffffffffffffffffffffffffffffffff1614159050919050565b600033905090565b816004600083815260200190815260200160002060006101000a81548173ffffffffffffffffffffffffffffffffffffffff021916908373ffffffffffffffffffffffffffffffffffffffff160217905550808273ffffffffffffffffffffffffffffffffffffffff1661159883610a25565b73ffffffffffffffffffffffffffffffffffffffff167f8c5be1e5ebec7d5bd14f71427d1e84f3dd0314c0f7b2291e5b200ac8c7c3b92560405160405180910390a45050565b60006115e9826114b1565b611628576040517f08c379a000000000000000000000000000000000000000000000000000000000815260040161161f906131f6565b60405180910390fd5b600061163383610a25565b90508073ffffffffffffffffffffffffffffffffffffffff168473ffffffffffffffffffffffffffffffffffffffff1614806116a257508373ffffffffffffffffffffffffffffffffffffffff1661168a8461056a565b73ffffffffffffffffffffffffffffffffffffffff16145b806116b357506116b2818561131a565b5b91505092915050565b8273ffffffffffffffffffffffffffffffffffffffff166116dc82610a25565b73ffffffffffffffffffffffffffffffffffffffff1614611732576040517f08c379a000000000000000000000000000000000000000000000000000000000815260040161172990613176565b60405180910390fd5b600073ffffffffffffffffffffffffffffffffffffffff168273ffffffffffffffffffffffffffffffffffffffff1614156117a2576040517f08c379a0000000000000000000000000000000000000000000000000000000008152600401611799906131b6565b60405180910390fd5b6117ad838383612168565b6117b8600082611525565b6001600360008573ffffffffffffffffffffffffffffffffffffffff1673ffffffffffffffffffffffffffffffffffffffff16815260200190815260200160002060008282546118089190613520565b925050819055506001600360008473ffffffffffffffffffffffffffffffffffffffff1673ffffffffffffffffffffffffffffffffffffffff168152602001908152602001600020600082825461185f919061343f565b92505081905550816002600083815260200190815260200160002060006101000a81548173ffffffffffffffffffffffffffffffffffffffff021916908373ffffffffffffffffffffffffffffffffffffffff160217905550808273ffffffffffffffffffffffffffffffffffffffff168473ffffffffffffffffffffffffffffffffffffffff167fddf252ad1be2c89b69c2b068fc378daa952ba7f163c4a11628f55a4df523b3ef60405160405180910390a461191e83838361216d565b505050565b6060600082141561196b576040518060400160405280600181526020017f30000000000000000000000000000000000000000000000000000000000000008152509050611acb565b600082905060005b6000821461199d5780806119869061366d565b915050600a826119969190613495565b9150611973565b60008167ffffffffffffffff8111156119df577f4e487b7100000000000000000000000000000000000000000000000000000000600052604160045260246000fd5b6040519080825280601f01601f191660200182016040528015611a115781602001600182028036833780820191505090505b5090505b60008514611ac457600182611a2a9190613520565b9150600a85611a3991906136b6565b6030611a45919061343f565b60f81b818381518110611a81577f4e487b7100000000000000000000000000000000000000000000000000000000600052603260045260246000fd5b60200101907effffffffffffffffffffffffffffffffffffffffffffffffffffffffffffff1916908160001a905350600a85611abd9190613495565b9450611a15565b8093505050505b919050565b600081604051602001611ae39190612e1a565b6040516020818303038152906040528051906020012060001c9050919050565b600081600001549050919050565b8173ffffffffffffffffffffffffffffffffffffffff168373ffffffffffffffffffffffffffffffffffffffff161415611b80576040517f08c379a0000000000000000000000000000000000000000000000000000000008152600401611b77906131d6565b60405180910390fd5b80600560008573ffffffffffffffffffffffffffffffffffffffff1673ffffffffffffffffffffffffffffffffffffffff16815260200190815260200160002060008473ffffffffffffffffffffffffffffffffffffffff1673ffffffffffffffffffffffffffffffffffffffff16815260200190815260200160002060006101000a81548160ff0219169083151502179055508173ffffffffffffffffffffffffffffffffffffffff168373ffffffffffffffffffffffffffffffffffffffff167f17307eab39ab6107e8899845ad3d59bd9653f200f220920489ca2b5937696c3183604051611c719190613088565b60405180910390a3505050565b611c898484846116bc565b611c9584848484612172565b611cd4576040517f08c379a0000000000000000000000000000000000000000000000000000000008152600401611ccb90613156565b60405180910390fd5b50505050565b606060405180602001604052806000815250905090565b6060611cfc826114b1565b611d3b576040517f08c379a0000000000000000000000000000000000000000000000000000000008152600401611d32906132f6565b60405180910390fd5b6000611d45611cda565b90506000815111611d655760405180602001604052806000815250611d90565b80611d6f84611923565b604051602001611d80929190612e31565b6040516020818303038152906040525b915050919050565b611e3484848484604051602401611db29493929190613103565b6040516020818303038152906040527fa0c4b225000000000000000000000000000000000000000000000000000000007bffffffffffffffffffffffffffffffffffffffffffffffffffffffff19166020820180517bffffffffffffffffffffffffffffffffffffffffffffffffffffffff838183161783525050505061213f565b50505050565b60606000825190506000811415611e635760405180602001604052806000815250915050611ff3565b60006003600283611e74919061343f565b611e7e9190613495565b6004611e8a91906134c6565b90506000602082611e9b919061343f565b67ffffffffffffffff811115611eda577f4e487b7100000000000000000000000000000000000000000000000000000000600052604160045260246000fd5b6040519080825280601f01601f191660200182016040528015611f0c5781602001600182028036833780820191505090505b5090506000604051806060016040528060408152602001613eec604091399050600181016020830160005b86811015611fb05760038101905062ffffff818a015116603f8160121c168401518060081b905060ff603f83600c1c1686015116810190508060081b905060ff603f8360061c1686015116810190508060081b905060ff603f831686015116810190508060e01b90508084526004840193505050611f37565b506003860660018114611fca5760028114611fda57611fe5565b613d3d60f01b6002830352611fe5565b603d60f81b60018303525b508484525050819450505050505b919050565b612012828260405180602001604052806000815250612309565b5050565b61201f826114b1565b61205e576040517f08c379a000000000000000000000000000000000000000000000000000000000815260040161205590613276565b60405180910390fd5b80600660008481526020019081526020016000209080519060200190612085929190612561565b505050565b6001816000016000828254019250508190555050565b61213a8383836040516024016120b8939291906130c5565b6040516020818303038152906040527fe3849f79000000000000000000000000000000000000000000000000000000007bffffffffffffffffffffffffffffffffffffffffffffffffffffffff19166020820180517bffffffffffffffffffffffffffffffffffffffffffffffffffffffff838183161783525050505061213f565b505050565b60008151905060006a636f6e736f6c652e6c6f679050602083016000808483855afa5050505050565b505050565b505050565b60006121938473ffffffffffffffffffffffffffffffffffffffff16612364565b156122fc578373ffffffffffffffffffffffffffffffffffffffff1663150b7a026121bc61151d565b8786866040518563ffffffff1660e01b81526004016121de9493929190613013565b602060405180830381600087803b1580156121f857600080fd5b505af192505050801561222957506040513d601f19601f8201168201806040525081019061222691906128a5565b60015b6122ac573d8060008114612259576040519150601f19603f3d011682016040523d82523d6000602084013e61225e565b606091505b506000815114156122a4576040517f08c379a000000000000000000000000000000000000000000000000000000000815260040161229b90613156565b60405180910390fd5b805181602001fd5b63150b7a0260e01b7bffffffffffffffffffffffffffffffffffffffffffffffffffffffff1916817bffffffffffffffffffffffffffffffffffffffffffffffffffffffff191614915050612301565b600190505b949350505050565b6123138383612387565b6123206000848484612172565b61235f576040517f08c379a000000000000000000000000000000000000000000000000000000000815260040161235690613156565b60405180910390fd5b505050565b6000808273ffffffffffffffffffffffffffffffffffffffff163b119050919050565b600073ffffffffffffffffffffffffffffffffffffffff168273ffffffffffffffffffffffffffffffffffffffff1614156123f7576040517f08c379a00000000000000000000000000000000000000000000000000000000081526004016123ee90613296565b60405180910390fd5b612400816114b1565b15612440576040517f08c379a000000000000000000000000000000000000000000000000000000000815260040161243790613196565b60405180910390fd5b61244c60008383612168565b6001600360008473ffffffffffffffffffffffffffffffffffffffff1673ffffffffffffffffffffffffffffffffffffffff168152602001908152602001600020600082825461249c919061343f565b92505081905550816002600083815260200190815260200160002060006101000a81548173ffffffffffffffffffffffffffffffffffffffff021916908373ffffffffffffffffffffffffffffffffffffffff160217905550808273ffffffffffffffffffffffffffffffffffffffff16600073ffffffffffffffffffffffffffffffffffffffff167fddf252ad1be2c89b69c2b068fc378daa952ba7f163c4a11628f55a4df523b3ef60405160405180910390a461255d6000838361216d565b5050565b82805461256d9061360a565b90600052602060002090601f01602090048101928261258f57600085556125d6565b82601f106125a857805160ff19168380011785556125d6565b828001600101855582156125d6579182015b828111156125d55782518255916020019190600101906125ba565b5b5090506125e391906125e7565b5090565b5b808211156126005760008160009055506001016125e8565b5090565b6000612617612612846133b6565b613391565b90508281526020810184848401111561262f57600080fd5b61263a8482856135c8565b509392505050565b60008135905061265181613e6a565b92915050565b60008135905061266681613e81565b92915050565b60008135905061267b81613e98565b92915050565b60008151905061269081613e98565b92915050565b600082601f8301126126a757600080fd5b81356126b7848260208601612604565b91505092915050565b6000813590506126cf81613eaf565b92915050565b6000602082840312156126e757600080fd5b60006126f584828501612642565b91505092915050565b6000806040838503121561271157600080fd5b600061271f85828601612642565b925050602061273085828601612642565b9150509250929050565b60008060006060848603121561274f57600080fd5b600061275d86828701612642565b935050602061276e86828701612642565b925050604061277f868287016126c0565b9150509250925092565b6000806000806080858703121561279f57600080fd5b60006127ad87828801612642565b94505060206127be87828801612642565b93505060406127cf878288016126c0565b925050606085013567ffffffffffffffff8111156127ec57600080fd5b6127f887828801612696565b91505092959194509250565b6000806040838503121561281757600080fd5b600061282585828601612642565b925050602061283685828601612657565b9150509250929050565b6000806040838503121561285357600080fd5b600061286185828601612642565b9250506020612872858286016126c0565b9150509250929050565b60006020828403121561288e57600080fd5b600061289c8482850161266c565b91505092915050565b6000602082840312156128b757600080fd5b60006128c584828501612681565b91505092915050565b6000602082840312156128e057600080fd5b60006128ee848285016126c0565b91505092915050565b61290081613554565b82525050565b61290f81613566565b82525050565b6000612920826133fc565b61292a8185613412565b935061293a8185602086016135d7565b612943816137a3565b840191505092915050565b600061295982613407565b6129638185613423565b93506129738185602086016135d7565b61297c816137a3565b840191505092915050565b600061299282613407565b61299c8185613434565b93506129ac8185602086016135d7565b80840191505092915050565b600081546129c58161360a565b6129cf8186613434565b945060018216600081146129ea57600181146129fb57612a2e565b60ff19831686528186019350612a2e565b612a04856133e7565b60005b83811015612a2657815481890152600182019150602081019050612a07565b838801955050505b50505092915050565b6000612a44605a83613434565b9150612a4f826137b4565b605a82019050919050565b6000612a67603283613423565b9150612a7282613829565b604082019050919050565b6000612a8a602583613423565b9150612a9582613878565b604082019050919050565b6000612aad601c83613423565b9150612ab8826138c7565b602082019050919050565b6000612ad0600a83613434565b9150612adb826138f0565b600a82019050919050565b6000612af3602483613423565b9150612afe82613919565b604082019050919050565b6000612b16601983613423565b9150612b2182613968565b602082019050919050565b6000612b39600b83613434565b9150612b4482613991565b600b82019050919050565b6000612b5c602c83613423565b9150612b67826139ba565b604082019050919050565b6000612b7f600d83613434565b9150612b8a82613a09565b600d82019050919050565b6000612ba2603883613423565b9150612bad82613a32565b604082019050919050565b6000612bc5602a83613423565b9150612bd082613a81565b604082019050919050565b6000612be8602983613423565b9150612bf382613ad0565b604082019050919050565b6000612c0b602e83613423565b9150612c1682613b1f565b604082019050919050565b6000612c2e600283613434565b9150612c3982613b6e565b600282019050919050565b6000612c51602083613423565b9150612c5c82613b97565b602082019050919050565b6000612c74603183613423565b9150612c7f82613bc0565b604082019050919050565b6000612c97602c83613423565b9150612ca282613c0f565b604082019050919050565b6000612cba602f83613423565b9150612cc582613c5e565b604082019050919050565b6000612cdd600a83613434565b9150612ce882613cad565b600a82019050919050565b6000612d00600183613434565b9150612d0b82613cd6565b600182019050919050565b6000612d23602183613423565b9150612d2e82613cff565b604082019050919050565b6000612d46600a83613434565b9150612d5182613d4e565b600a82019050919050565b6000612d69601d83613434565b9150612d7482613d77565b601d82019050919050565b6000612d8c603183613423565b9150612d9782613da0565b604082019050919050565b6000612daf600583613434565b9150612dba82613def565b600582019050919050565b6000612dd2601d83613423565b9150612ddd82613e18565b602082019050919050565b6000612df5600183613434565b9150612e0082613e41565b600182019050919050565b612e14816135be565b82525050565b6000612e268284612987565b915081905092915050565b6000612e3d8285612987565b9150612e498284612987565b91508190509392505050565b6000612e618286612987565b9150612e6d8285612987565b9150612e798284612987565b9150819050949350505050565b6000612e9282876129b8565b9150612e9e8286612987565b9150612eaa82856129b8565b9150612eb68284612987565b9150612ec182612b72565b915081905095945050505050565b6000612eda82612ac3565b9150612ee68284612987565b915081905092915050565b6000612efc82612b2c565b9150612f088284612987565b915081905092915050565b6000612f1e82612cd0565b9150612f2a8285612987565b9150612f3582612a37565b9150612f418284612987565b9150612f4c82612c21565b91508190509392505050565b6000612f6382612cf3565b9150612f6f8285612987565b9150612f7a82612de8565b9150612f868284612987565b91508190509392505050565b6000612f9d82612d39565b9150612fa98284612987565b915081905092915050565b6000612fbf82612d5c565b9150612fcb8284612987565b915081905092915050565b6000612fe182612da2565b9150612fed8284612987565b915081905092915050565b600060208201905061300d60008301846128f7565b92915050565b600060808201905061302860008301876128f7565b61303560208301866128f7565b6130426040830185612e0b565b81810360608301526130548184612915565b905095945050505050565b600060408201905061307460008301856128f7565b6130816020830184612e0b565b9392505050565b600060208201905061309d6000830184612906565b92915050565b600060208201905081810360008301526130bd818461294e565b905092915050565b600060608201905081810360008301526130df818661294e565b90506130ee6020830185612e0b565b6130fb60408301846128f7565b949350505050565b6000608082019050818103600083015261311d818761294e565b905061312c6020830186612e0b565b818103604083015261313e818561294e565b905061314d6060830184612e0b565b95945050505050565b6000602082019050818103600083015261316f81612a5a565b9050919050565b6000602082019050818103600083015261318f81612a7d565b9050919050565b600060208201905081810360008301526131af81612aa0565b9050919050565b600060208201905081810360008301526131cf81612ae6565b9050919050565b600060208201905081810360008301526131ef81612b09565b9050919050565b6000602082019050818103600083015261320f81612b4f565b9050919050565b6000602082019050818103600083015261322f81612b95565b9050919050565b6000602082019050818103600083015261324f81612bb8565b9050919050565b6000602082019050818103600083015261326f81612bdb565b9050919050565b6000602082019050818103600083015261328f81612bfe565b9050919050565b600060208201905081810360008301526132af81612c44565b9050919050565b600060208201905081810360008301526132cf81612c67565b9050919050565b600060208201905081810360008301526132ef81612c8a565b9050919050565b6000602082019050818103600083015261330f81612cad565b9050919050565b6000602082019050818103600083015261332f81612d16565b9050919050565b6000602082019050818103600083015261334f81612d7f565b9050919050565b6000602082019050818103600083015261336f81612dc5565b9050919050565b600060208201905061338b6000830184612e0b565b92915050565b600061339b6133ac565b90506133a7828261363c565b919050565b6000604051905090565b600067ffffffffffffffff8211156133d1576133d0613774565b5b6133da826137a3565b9050602081019050919050565b60008190508160005260206000209050919050565b600081519050919050565b600081519050919050565b600082825260208201905092915050565b600082825260208201905092915050565b600081905092915050565b600061344a826135be565b9150613455836135be565b9250827fffffffffffffffffffffffffffffffffffffffffffffffffffffffffffffffff0382111561348a576134896136e7565b5b828201905092915050565b60006134a0826135be565b91506134ab836135be565b9250826134bb576134ba613716565b5b828204905092915050565b60006134d1826135be565b91506134dc836135be565b9250817fffffffffffffffffffffffffffffffffffffffffffffffffffffffffffffffff0483118215151615613515576135146136e7565b5b828202905092915050565b600061352b826135be565b9150613536836135be565b925082821015613549576135486136e7565b5b828203905092915050565b600061355f8261359e565b9050919050565b60008115159050919050565b60007fffffffff0000000000000000000000000000000000000000000000000000000082169050919050565b600073ffffffffffffffffffffffffffffffffffffffff82169050919050565b6000819050919050565b82818337600083830152505050565b60005b838110156135f55780820151818401526020810190506135da565b83811115613604576000848401525b50505050565b6000600282049050600182168061362257607f821691505b6020821081141561363657613635613745565b5b50919050565b613645826137a3565b810181811067ffffffffffffffff8211171561366457613663613774565b5b80604052505050565b6000613678826135be565b91507fffffffffffffffffffffffffffffffffffffffffffffffffffffffffffffffff8214156136ab576136aa6136e7565b5b600182019050919050565b60006136c1826135be565b91506136cc836135be565b9250826136dc576136db613716565b5b828206905092915050565b7f4e487b7100000000000000000000000000000000000000000000000000000000600052601160045260246000fd5b7f4e487b7100000000000000000000000000000000000000000000000000000000600052601260045260246000fd5b7f4e487b7100000000000000000000000000000000000000000000000000000000600052602260045260246000fd5b7f4e487b7100000000000000000000000000000000000000000000000000000000600052604160045260246000fd5b6000601f19601f8301169050919050565b7f222c20226465736372697074696f6e223a20224172742069732061206c69626560008201527f72747920726570726573656e746174696f6e2e222c2022696d616765223a202260208201527f646174613a696d6167652f7376672b786d6c3b6261736536342c000000000000604082015250565b7f4552433732313a207472616e7366657220746f206e6f6e20455243373231526560008201527f63656976657220696d706c656d656e7465720000000000000000000000000000602082015250565b7f4552433732313a207472616e736665722066726f6d20696e636f72726563742060008201527f6f776e6572000000000000000000000000000000000000000000000000000000602082015250565b7f4552433732313a20746f6b656e20616c7265616479206d696e74656400000000600082015250565b7f54484952445f574f524400000000000000000000000000000000000000000000600082015250565b7f4552433732313a207472616e7366657220746f20746865207a65726f2061646460008201527f7265737300000000000000000000000000000000000000000000000000000000602082015250565b7f4552433732313a20617070726f766520746f2063616c6c657200000000000000600082015250565b7f5345434f4e445f574f5244000000000000000000000000000000000000000000600082015250565b7f4552433732313a206f70657261746f7220717565727920666f72206e6f6e657860008201527f697374656e7420746f6b656e0000000000000000000000000000000000000000602082015250565b7f3c2f746578743e3c2f7376673e00000000000000000000000000000000000000600082015250565b7f4552433732313a20617070726f76652063616c6c6572206973206e6f74206f7760008201527f6e6572206e6f7220617070726f76656420666f7220616c6c0000000000000000602082015250565b7f4552433732313a2062616c616e636520717565727920666f7220746865207a6560008201527f726f206164647265737300000000000000000000000000000000000000000000602082015250565b7f4552433732313a206f776e657220717565727920666f72206e6f6e657869737460008201527f656e7420746f6b656e0000000000000000000000000000000000000000000000602082015250565b7f45524337323155524953746f726167653a2055524920736574206f66206e6f6e60008201527f6578697374656e7420746f6b656e000000000000000000000000000000000000602082015250565b7f227d000000000000000000000000000000000000000000000000000000000000600082015250565b7f4552433732313a206d696e7420746f20746865207a65726f2061646472657373600082015250565b7f45524337323155524953746f726167653a2055524920717565727920666f722060008201527f6e6f6e6578697374656e7420746f6b656e000000000000000000000000000000602082015250565b7f4552433732313a20617070726f76656420717565727920666f72206e6f6e657860008201527f697374656e7420746f6b656e0000000000000000000000000000000000000000602082015250565b7f4552433732314d657461646174613a2055524920717565727920666f72206e6f60008201527f6e6578697374656e7420746f6b656e0000000000000000000000000000000000602082015250565b7f7b226e616d65223a202200000000000000000000000000000000000000000000600082015250565b7f2300000000000000000000000000000000000000000000000000000000000000600082015250565b7f4552433732313a20617070726f76616c20746f2063757272656e74206f776e6560008201527f7200000000000000000000000000000000000000000000000000000000000000602082015250565b7f46495253545f574f524400000000000000000000000000000000000000000000600082015250565b7f646174613a6170706c69636174696f6e2f6a736f6e3b6261736536342c000000600082015250565b7f4552433732313a207472616e736665722063616c6c6572206973206e6f74206f60008201527f776e6572206e6f7220617070726f766564000000000000000000000000000000602082015250565b7f434f4c4f52000000000000000000000000000000000000000000000000000000600082015250565b7f63616e6e6f74206d696e74206d6f7265207468616e203130206e667473000000600082015250565b7f2f00000000000000000000000000000000000000000000000000000000000000600082015250565b613e7381613554565b8114613e7e57600080fd5b50565b613e8a81613566565b8114613e9557600080fd5b50565b613ea181613572565b8114613eac57600080fd5b50565b613eb8816135be565b8114613ec357600080fd5b5056fe416e204e465420772f20494420257320686173206265656e206d696e74656420746f2025734142434445464748494a4b4c4d4e4f505152535455565758595a6162636465666768696a6b6c6d6e6f707172737475767778797a303132333435363738392b2fa2646970667358221220642315d341af6c81e7068c898ec7a3ed09ea2a4094c916992c85210ea091595f64736f6c634300080100333c73766720786d6c6e733d27687474703a2f2f7777772e77332e6f72672f323030302f73766727207072657365727665417370656374526174696f3d27784d696e594d696e206d656574272076696577426f783d273020302033353020333530273e3c7374796c653e2e62617365207b2066696c6c3a2077686974653b20666f6e742d66616d696c793a2073657269663b20666f6e742d73697a653a20323470783b207d3c2f7374796c653e3c726563742077696474683d273130302527206865696768743d2731303025272066696c6c3d27272f3e3c7465787420783d273530252720793d273530252720636c6173733d27626173652720646f6d696e616e742d626173656c696e653d276d6964646c652720746578742d616e63686f723d276d6964646c65273e",
  "linkReferences": {},
  "deployedLinkReferences": {}
}